{
  "_format": "hh-sol-artifact-1",
  "contractName": "MultiSender",
  "sourceName": "contracts/MultiSender.sol",
  "abi": [
    {
      "inputs": [],
      "stateMutability": "nonpayable",
      "type": "constructor"
    },
    {
      "inputs": [
        {
          "internalType": "address",
          "name": "owner",
          "type": "address"
        }
      ],
      "name": "OwnableInvalidOwner",
      "type": "error"
    },
    {
      "inputs": [
        {
          "internalType": "address",
          "name": "account",
          "type": "address"
        }
      ],
      "name": "OwnableUnauthorizedAccount",
      "type": "error"
    },
    {
      "anonymous": false,
      "inputs": [
        {
          "indexed": true,
          "internalType": "address",
          "name": "previousOwner",
          "type": "address"
        },
        {
          "indexed": true,
          "internalType": "address",
          "name": "newOwner",
          "type": "address"
        }
      ],
      "name": "OwnershipTransferred",
      "type": "event"
    },
    {
      "inputs": [
        {
          "internalType": "address payable[]",
          "name": "recipients",
          "type": "address[]"
        },
        {
          "internalType": "uint256[]",
          "name": "amounts",
          "type": "uint256[]"
        }
      ],
      "name": "multiSendEth",
      "outputs": [],
      "stateMutability": "payable",
      "type": "function"
    },
    {
      "inputs": [
        {
          "internalType": "contract IERC20",
          "name": "token",
          "type": "address"
        },
        {
          "internalType": "address[]",
          "name": "recipients",
          "type": "address[]"
        },
        {
          "internalType": "uint256[]",
          "name": "amounts",
          "type": "uint256[]"
        }
      ],
      "name": "multiSendToken",
      "outputs": [],
      "stateMutability": "nonpayable",
      "type": "function"
    },
    {
      "inputs": [],
      "name": "owner",
      "outputs": [
        {
          "internalType": "address",
          "name": "",
          "type": "address"
        }
      ],
      "stateMutability": "view",
      "type": "function"
    },
    {
      "inputs": [],
      "name": "renounceOwnership",
      "outputs": [],
      "stateMutability": "nonpayable",
      "type": "function"
    },
    {
      "inputs": [
        {
          "internalType": "address",
          "name": "newOwner",
          "type": "address"
        }
      ],
      "name": "transferOwnership",
      "outputs": [],
      "stateMutability": "nonpayable",
      "type": "function"
    }
  ],
  "bytecode": "0x608060405234801561001057600080fd5b5033600073ffffffffffffffffffffffffffffffffffffffff168173ffffffffffffffffffffffffffffffffffffffff16036100845760006040517f1e4fbdf700000000000000000000000000000000000000000000000000000000815260040161007b919061019e565b60405180910390fd5b6100938161009960201b60201c565b506101b9565b60008060009054906101000a900473ffffffffffffffffffffffffffffffffffffffff169050816000806101000a81548173ffffffffffffffffffffffffffffffffffffffff021916908373ffffffffffffffffffffffffffffffffffffffff1602179055508173ffffffffffffffffffffffffffffffffffffffff168173ffffffffffffffffffffffffffffffffffffffff167f8be0079c531659141344cd1fd0a4f28419497f9722a3daafe3b4186f6b6457e060405160405180910390a35050565b600073ffffffffffffffffffffffffffffffffffffffff82169050919050565b60006101888261015d565b9050919050565b6101988161017d565b82525050565b60006020820190506101b3600083018461018f565b92915050565b611035806101c86000396000f3fe60806040526004361061004a5760003560e01c8063715018a61461004f5780638da5cb5b146100665780638e89971814610091578063e702d7af146100ba578063f2fde38b146100d6575b600080fd5b34801561005b57600080fd5b506100646100ff565b005b34801561007257600080fd5b5061007b610113565b6040516100889190610776565b60405180910390f35b34801561009d57600080fd5b506100b860048036038101906100b39190610a61565b61013c565b005b6100d460048036038101906100cf9190610bed565b610393565b005b3480156100e257600080fd5b506100fd60048036038101906100f89190610c65565b61055c565b005b6101076105e2565b6101116000610669565b565b60008060009054906101000a900473ffffffffffffffffffffffffffffffffffffffff16905090565b8051825114610180576040517f08c379a000000000000000000000000000000000000000000000000000000000815260040161017790610cef565b60405180910390fd5b6000805b82518110156101c2578281815181106101a05761019f610d0f565b5b6020026020010151826101b39190610d6d565b91508080600101915050610184565b508373ffffffffffffffffffffffffffffffffffffffff166323b872dd3330846040518463ffffffff1660e01b815260040161020093929190610db0565b6020604051808303816000875af115801561021f573d6000803e3d6000fd5b505050506040513d601f19601f820116820180604052508101906102439190610e1f565b610282576040517f08c379a000000000000000000000000000000000000000000000000000000000815260040161027990610e98565b60405180910390fd5b60005b835181101561038c578473ffffffffffffffffffffffffffffffffffffffff1663a9059cbb8583815181106102bd576102bc610d0f565b5b60200260200101518584815181106102d8576102d7610d0f565b5b60200260200101516040518363ffffffff1660e01b81526004016102fd929190610eb8565b6020604051808303816000875af115801561031c573d6000803e3d6000fd5b505050506040513d601f19601f820116820180604052508101906103409190610e1f565b61037f576040517f08c379a000000000000000000000000000000000000000000000000000000000815260040161037690610e98565b60405180910390fd5b8080600101915050610285565b5050505050565b80518251146103d7576040517f08c379a00000000000000000000000000000000000000000000000000000000081526004016103ce90610cef565b60405180910390fd5b6000805b8251811015610419578281815181106103f7576103f6610d0f565b5b60200260200101518261040a9190610d6d565b915080806001019150506103db565b5080341461045c576040517f08c379a000000000000000000000000000000000000000000000000000000000815260040161045390610f2d565b60405180910390fd5b60005b835181101561055657600084828151811061047d5761047c610d0f565b5b602002602001015173ffffffffffffffffffffffffffffffffffffffff168483815181106104ae576104ad610d0f565b5b60200260200101516040516104c290610f7e565b60006040518083038185875af1925050503d80600081146104ff576040519150601f19603f3d011682016040523d82523d6000602084013e610504565b606091505b5050905080610548576040517f08c379a000000000000000000000000000000000000000000000000000000000815260040161053f90610fdf565b60405180910390fd5b50808060010191505061045f565b50505050565b6105646105e2565b600073ffffffffffffffffffffffffffffffffffffffff168173ffffffffffffffffffffffffffffffffffffffff16036105d65760006040517f1e4fbdf70000000000000000000000000000000000000000000000000000000081526004016105cd9190610776565b60405180910390fd5b6105df81610669565b50565b6105ea61072d565b73ffffffffffffffffffffffffffffffffffffffff16610608610113565b73ffffffffffffffffffffffffffffffffffffffff16146106675761062b61072d565b6040517f118cdaa700000000000000000000000000000000000000000000000000000000815260040161065e9190610776565b60405180910390fd5b565b60008060009054906101000a900473ffffffffffffffffffffffffffffffffffffffff169050816000806101000a81548173ffffffffffffffffffffffffffffffffffffffff021916908373ffffffffffffffffffffffffffffffffffffffff1602179055508173ffffffffffffffffffffffffffffffffffffffff168173ffffffffffffffffffffffffffffffffffffffff167f8be0079c531659141344cd1fd0a4f28419497f9722a3daafe3b4186f6b6457e060405160405180910390a35050565b600033905090565b600073ffffffffffffffffffffffffffffffffffffffff82169050919050565b600061076082610735565b9050919050565b61077081610755565b82525050565b600060208201905061078b6000830184610767565b92915050565b6000604051905090565b600080fd5b600080fd5b60006107b082610755565b9050919050565b6107c0816107a5565b81146107cb57600080fd5b50565b6000813590506107dd816107b7565b92915050565b600080fd5b6000601f19601f8301169050919050565b7f4e487b7100000000000000000000000000000000000000000000000000000000600052604160045260246000fd5b610831826107e8565b810181811067ffffffffffffffff821117156108505761084f6107f9565b5b80604052505050565b6000610863610791565b905061086f8282610828565b919050565b600067ffffffffffffffff82111561088f5761088e6107f9565b5b602082029050602081019050919050565b600080fd5b6108ae81610755565b81146108b957600080fd5b50565b6000813590506108cb816108a5565b92915050565b60006108e46108df84610874565b610859565b90508083825260208201905060208402830185811115610907576109066108a0565b5b835b81811015610930578061091c88826108bc565b845260208401935050602081019050610909565b5050509392505050565b600082601f83011261094f5761094e6107e3565b5b813561095f8482602086016108d1565b91505092915050565b600067ffffffffffffffff821115610983576109826107f9565b5b602082029050602081019050919050565b6000819050919050565b6109a781610994565b81146109b257600080fd5b50565b6000813590506109c48161099e565b92915050565b60006109dd6109d884610968565b610859565b90508083825260208201905060208402830185811115610a00576109ff6108a0565b5b835b81811015610a295780610a1588826109b5565b845260208401935050602081019050610a02565b5050509392505050565b600082601f830112610a4857610a476107e3565b5b8135610a588482602086016109ca565b91505092915050565b600080600060608486031215610a7a57610a7961079b565b5b6000610a88868287016107ce565b935050602084013567ffffffffffffffff811115610aa957610aa86107a0565b5b610ab58682870161093a565b925050604084013567ffffffffffffffff811115610ad657610ad56107a0565b5b610ae286828701610a33565b9150509250925092565b600067ffffffffffffffff821115610b0757610b066107f9565b5b602082029050602081019050919050565b6000610b2382610735565b9050919050565b610b3381610b18565b8114610b3e57600080fd5b50565b600081359050610b5081610b2a565b92915050565b6000610b69610b6484610aec565b610859565b90508083825260208201905060208402830185811115610b8c57610b8b6108a0565b5b835b81811015610bb55780610ba18882610b41565b845260208401935050602081019050610b8e565b5050509392505050565b600082601f830112610bd457610bd36107e3565b5b8135610be4848260208601610b56565b91505092915050565b60008060408385031215610c0457610c0361079b565b5b600083013567ffffffffffffffff811115610c2257610c216107a0565b5b610c2e85828601610bbf565b925050602083013567ffffffffffffffff811115610c4f57610c4e6107a0565b5b610c5b85828601610a33565b9150509250929050565b600060208284031215610c7b57610c7a61079b565b5b6000610c89848285016108bc565b91505092915050565b600082825260208201905092915050565b7f417272617973206d7573742068617665207468652073616d65206c656e677468600082015250565b6000610cd9602083610c92565b9150610ce482610ca3565b602082019050919050565b60006020820190508181036000830152610d0881610ccc565b9050919050565b7f4e487b7100000000000000000000000000000000000000000000000000000000600052603260045260246000fd5b7f4e487b7100000000000000000000000000000000000000000000000000000000600052601160045260246000fd5b6000610d7882610994565b9150610d8383610994565b9250828201905080821115610d9b57610d9a610d3e565b5b92915050565b610daa81610994565b82525050565b6000606082019050610dc56000830186610767565b610dd26020830185610767565b610ddf6040830184610da1565b949350505050565b60008115159050919050565b610dfc81610de7565b8114610e0757600080fd5b50565b600081519050610e1981610df3565b92915050565b600060208284031215610e3557610e3461079b565b5b6000610e4384828501610e0a565b91505092915050565b7f5472616e73666572206661696c65640000000000000000000000000000000000600082015250565b6000610e82600f83610c92565b9150610e8d82610e4c565b602082019050919050565b60006020820190508181036000830152610eb181610e75565b9050919050565b6000604082019050610ecd6000830185610767565b610eda6020830184610da1565b9392505050565b7f496e636f72726563742045544820616d6f756e742073656e7400000000000000600082015250565b6000610f17601983610c92565b9150610f2282610ee1565b602082019050919050565b60006020820190508181036000830152610f4681610f0a565b9050919050565b600081905092915050565b50565b6000610f68600083610f4d565b9150610f7382610f58565b600082019050919050565b6000610f8982610f5b565b9150819050919050565b7f455448207472616e73666572206661696c656400000000000000000000000000600082015250565b6000610fc9601383610c92565b9150610fd482610f93565b602082019050919050565b60006020820190508181036000830152610ff881610fbc565b905091905056fea26469706673582212205e705cbfc0a4586119bf7a32b406509de483882e954dbf9389a4d6b47ce15a9264736f6c63430008180033",
  "linkReferences": {},
  "deployedLinkReferences": {}
}